P0450008045I291580000001                    SULTAN KHA                                                                                USMAN KHA                                                                                 AEMA KHATUN                                                                               MANNAA BEGUM                                                          9903009M20061985                    BD7354320140       1                                                                                                                3430                                                                                                                                                                                                                                                                                                       000000000 01716677083                                                                                                                                                                                                                                   
P0450008045HT15400000001                    MD ZUNAED UDDIN                                                                           MD HASAN UDDIN                                                                            HUSSEN ARA BEGUM                                                                          ARIFA HOQUE                                                           9903009M31101973                    BD197312194763378501                                                                                                                UNKNOWN                                                                                                                                                                                                                                                                                                       000000000 01715493230                                                                                                                                                                                                                                
P0450008045I180040000001                    SAYED MORTOZA ALI                                                                         LATE SAYED MAFIZ ALI                                                                      LATE MST JUBEDA KHATUN                                                                    MST AYESHA AKTER                                                      9911000M02011962                    BD1219476351165    1                                                                                                                3430                                                                                                                                                                                                                                                                                                       000000000 01714637011                                                                                                                                                                                                                                   
P0450008045JH27410000001                    MD MUKLASUR RAHMAN                                                                        MD ABU TAHER                                                                              AMBEYA BEGUM                                                                                                                                                    9910000M31101979                    BD197912194473220281                                                                                                                3430                                                                                                                                                                                                                                                                                                       000000000 01715871765                                                                                                                                                                                                                                   
P0450008045JM48740000001                    MD TAMZIDUR RAH                                                       MD.                 Md. Mizanur Rahman                                                                        Rashida Sultana                                                                                                                                                 9903009M02051987                    BD5998587827       1                                                                                                                                                                                                                                                                                                                                                                                                                           000000000 01714506863                                                                                                                                                                                                                                   
P0450008045JF25270000001                    ROP MIAH                                                                                  ABU TAHER                                                                                 JUSNA BEGUM                                                                               MST ABEDA BEGUM                                                       9915006M30011968                    BD196812194760000581                                                                                                                3430                                                                                                                                                                                                                                                                                                       000000000 01726994847                                                                                                                                                                                                                                   
P0450008045J663310000001                    UMME KULSUM                                                                               LATE SAYED MOFIZ ALI                                                                      LATE JOBEDA KHATUN                                                                        LATE KHANDAKER                                                        9915006                             BD                 0                                                                                                                                                                                                                                                                                                                                                                                                                           000000000                                                                                                                                                                                                                                               
P0450008045I134710000001                    UZZAL MIA                                                                                 ABDUL MOJID                                                                               MOONJAHAN BEGUM                                                                           MST SOMA AKTER                                                        9903009M04021984                    BD1219476334348    1                                                                                                                3430                                                                                                                                                                                                                                                                                                       000000000 01762298050                                                                                                                                                                                                                                   
P0450008045JJ08420000001                    MOHAMMED ALAMGIR                                                                          MD MOFIL MIAH                                                                             RASHIDA                                                                                   MONALISA BEGUM                                                        9911000M10121977                    BD                 0                                                                                                                3400                                                                                                                                                                                                                                                                                                       000000000 01729340046                                                                                                                                                                                                                                   
P0450008045J734340000001                    JAMIL UDDIN                                                                               JASIM UDDIN                                                                               NASIMA AKTER                                                                                                                                                    9903009                             BD                 0                                                                                                                                                                                                                                                                                                                                                                                                                           000000000                                                                                                                                                                                                                                               
P0450008045I630010000001MST.                MST  FATEMA BEGUM                                                                         KHALILUR RAHMAN                                                                           FOZINTUN NESA                                                                             MD SHAHIDUL HAQUE BHUIYAN                                             9915001F21091976                    BD9148399679       1                                                                                                                3400                                                                                                                                                                                                                                                                                                       000000000 01798447052                                                                                                                                                                                                                                   
P0450008045JI21130000001                    MD ABDUL WAHED KHANDAKER                                                                  LATE MONNOR ALI KHANDAKER                                                                 LATE KPRPUR NESA                                                                                                                                                9915006M01011956                    BD2693625665935    1                                                                                                                3400                                                                                                                                                                                                                                                                                                       000000000 01911736810                                                                                                                                                                                                                                   
P0450008045I239530000001                    FARID MIAH                                                                                LUTFUR RAHMAN                                                                             SAHEDA BEGUM                                                                              JARINA BEGUM                                                          9901009M17051964                    BD2398162780       1                                                                                                                3400                                                                                                                                                                                                                                                                                                       000000000 01714584231                                                                                                                                                                                                                                   
P0450008045JT81050000001                    IQBAL                                                                                     ABDUS SUBAHAN                                                                             MAHMUDA AKTER                                                                                                                                                   9903009M20091985                    BD8698286682       1                                                                                                                                                                                                                                                                                                                                                                                                                           000000000 01715261370                                                                                                                                                                                                                                   
P0450008045I469470000001                    SAIFUL                                                                MD.                 MD. ABU MIAH                                                                              SIRINA BEGUM                                                                                                                                                    9903009M01031995                    BD6449681193       1                                                                                                                3400                                                                                                                                                                                                                                                                                                       000000000 01919684136                                                                                                                                                                                                                                   
P0450008045J172150000001                    MD YUSUF ALI                                                                              MD YEAKUB ALI                                                                             ASADON BEGUM                                                                                                                                                    9903009M17081965                    BD4198120422       1                                                                                                                                                                                                                                                                                                                                                                                                                           000000000 01915443280                                                                                                                                                                                                                                   
P0450008045JD42200000001                    KAZI MANJUR HOSSINE                                                                       KAZI ENIYET HOSSINE                                                                       HAMIDA BEGUM                                                                              HAMIDA BEGUM                                                          9903009M19101984                    BD5094200010       1                                                                                                                3400                                                                                                                                                                                                                                                                                                       000000000 01675598379                                                                                                                                                                                                                                   
P0450008045J435240000001                    MD MAJIBUR RAHM                                                                           MD AMINUL HAQUE                                                                           SAMSUNNAHAR                                                                                                                                                     9911000M31071973                    BD2848007494       1                                                                                                                                                                                                                                                                                                                                                                                                                           000000000 01721498721                                                                                                                                                                                                                                   
P0450008045JC88920000001                    SALMA BEGUM                                                                               ABDUL ALI                                                                                 MARJINA BEGUM                                                                             ELAN MIA                                                              9915001F03071970                    BD8698429522       1                                                                                                                3400                                                                                                                                                                                                                                                                                                       000000000 01683662729                                                                                                                                                                                                                                   
P0450008045JD60720000001                    SAMPAD ROY                                                                                Lokkhon Roy                                                                               Lipika Roy                                                                                                                                                      9903009M18071996                    BD8676391462       1                                                                                                                                                                                                                                                                                                                                                                                                                           000000000 01749008841                                                                                                                                                                                                                                   
P0450008045J180470000001                    JOYANTA DASH                                                                              NARAYAN CHANDRA DAS                                                                       KALPANA RANI DAS                                                                          SIMA DAS                                                              9903009M16121989                    BD1948148190       1                                                                                                                                                                                                                                                                                                                                                                                                                           000000000 01680267333                                                                                                                                                                                                                                   
P0450008045JJ34790000001                    HOSSAIN SHAHID                                                                            MD AROB ALI                                                           MST.                MST ROFIA AKTER                                                                           MST AFROJA AKTE                                                       9911000M30091973                    BD8248357728       1                                                                                                                                                                                                                                                                                                                                                                                                                           000000000 01717364352                                                                                                                                                                                                                                   
P0450008045JK10940000001                    Md Masum Miah                                                                             ROHIS MIA                                                                                 TASLIMA BEGUM                                                                                                                                                   9911000M15041995                    BD1455003812       1                                                                                                                                                                                                                                                                                                                                                                                                                           000000000 01758508036                                                                                                                                                                                                                                   
P0450008045JL99660000001                    ABDUL HARIJE MIAH                                                                         A. GONI                                                                                   HOSNA BEGUM                                                                                                                                                     9911000M02021950                    BD2398575015       1                                                                                                                                                                                                                                                                                                                                                                                                                           000000000 01311621187                                                                                                                                                                                                                                   
P0450008045JB52410000001                    ABU USUF GAZZAL                                                                           KHAJA SHAH RAFIKUL ISLAM CHISTY                                                           NAJMA AKTER                                                                               N/A                                                                   9910000M18041994                    BD3262558194       1                                                                                                                3464                                                                                                                                                                                                                                                                                                       000000000 01609056354                                                                                                                                                                                                                                   
P0450008045JT52280000001                    KARMAKANTH DAS                                                                            Late Shamlal Das                                                                          Late Bijoy Bala Das                                                                                                                                             9911000M31121968                    BD1219087786901    1                                                                                                                                                                                                                                                                                                                                                                                                                           000000000 01864850075                                                                                                                                                                                                                                   
P0450008045JD51060000001                    Sharifujjaman                                                         MD.                 MD.NURUL ISLAM CHOWDHURY                                                                  Kamrunnahar Chowdhury                                                                     MIRA SADIA AFRIN                                                      9903009M02031986                    BD198612190877856471                                                                                                                3440                                                                                                                                                                                                                                                                                                       000000000 01711394903                                                                                                                                                                                                                                   
P0450008045JT54190000001                    MD RATAN KANDAK                                                                           Fajlur Rahman Khandakar                                                                   Ashraf Khatun                                                                                                                                                   9910000M04011986                    BD1219014636249    1                                                                                                                                                                                                                                                                                                                                                                                                                           000000000 01715009795                                                                                                                                                                                                                                   
P0450008045JN77170000001                    MOHAMMAD MAHBUD                                                                           LATE ABDUS SALAM                                                                          SAHERA BEGUM                                                                                                                                                    9911000M01091979                    BD6816457326430    1                                                                                                                                                                                                                                                                                                                                                                                                                           000000000 01713365706                                                                                                                                                                                                                                   
P0450008045JM21850000001                    ANWAR HOSSAIN                                                                             TAJUL ISLAM                                                                               FULRAJ BEGUM                                                                              MST NURUNNAHAR                                                        9910000M03051979                    BD9554868910       1                                                                                                                                                                                                                                                                                                                                                                                                                           000000000 01748297945                                                                                                                                                                                                                                   
P0450008045KB09470000001                    MD ALAMGIR ALAM                                                                           Khurshed Alam                                                                             Samraj Alam                                                                                                                                                     9910000                             BD                 0                                                                                                                                                                                                                                                                                                                                                                                                                           000000000                                                                                                                                                                                                                                               
P0450008045J184520000001                    HASANE MOSANNA                                                                            Sams E Tabriz                                                                             Nurnnahar Begum                                                                           Razia Sultana R                                                       9910000M04041982                    BD1219087785173    1                                                                                                                                                                                                                                                                                                                                                                                                                           000000000 01715552649                                                                                                                                                                                                                                   
P0450008045J106630000001                    MASUM                                                                                     AMIR                                                                                      PARVEEN                                                                                                                                                         9911000M03021991                    BD                 0                                                                                                                3410                                                                                                                                                                                                                                                                                                       000000000 01861727212                                                                                                                                                                                                                                   
P0450008045JY88710000001                    SOGGETA                                                                                   RANA CHANDRA DAS                                                                          RATNA RANI DAS                                                                            DULAL CHANDRA D                                                       9915001F21041982                    BD7343975988       1                                                                                                                                                                                                                                                                                                                                                                                                                           000000000 01705169929                                                                                                                                                                                                                                   
P0450008045JK78930000001                    SAJEDA BEGUM                                                                              MIAH CHAN                                                                                 ASIA KHATUN                                                                               ERSHAD MIAH                                                           9915001F10111985                    BD6444890740       1                                                                                                                                                                                                                                                                                                                                                                                                                           000000000 01736353293                                                                                                                                                                                                                                   
P0450008045JB07490000001MD.                 MD. ATAUR RAHMAN                                                                          AKTERUJJAMAN                                                                              AYESHA BEGUM                                                                              RUBI AKTER                                                            9915006M30061977                    BD1957410374       1                                                                                                                                                                                                                                                                                                                                                                                                                           000000000 01710928520                                                                                                                                                                                                                                   
P0450008045J746020000001                    SHERIN AKTER                                                                              MOTALEB MIAH                                                                              NUR JAHAN BEGUM                                                                                                                                                 9915006                             BD                 0                                                                                                                                                                                                                                                                                                                                                                                                                           000000000                                                                                                                                                                                                                                               
P0450008045JA60000000001                    OBAIDUL HAQ                                                                               ABDUL KARIM BHUIYAN                                                                       FATEMA BEGUM                                                                                                                                                    9911000M15101996                    BD1466975909       1                                                                                                                                                                                                                                                                                                                                                                                                                           000000000 01687270686                                                                                                                                                                                                                                   
P0450008045JE67760000001                    MD JUNAYED ULLAH                                                                          MD ALI AJAM                                                                               SHIRIN AKTER                                                                              RIMA AKHTER                                                           9911000M09111989                    BD2398167664       1                                                                                                                                                                                                                                                                                                                                                                                                                           000000000 01767656463                                                                                                                                                                                                                                   
P0450008045JO28770000001                    LUKY AKHTER                                                                               MD JIBON MIAH                                                                             SEFALI BEGUM                                                                              MD KAMAL HOSSAI                                                       9911000F06041989                    BD9573517571       1                                                                                                                                                                                                                                                                                                                                                                                                                           000000000 01857090374                                                                                                                                                                                                                                   
P0450008045JM03280000001                    MD RASHO MIAH                                                                             HARUN RASHID                                                                              PORISHKARER NESA                                                                          SHOHANA BEGUM                                                         9903009M15121965                    BD5545894312       1                                                                                                                                                                                                                                                                                                                                                                                                                           000000000 01819726141                                                                                                                                                                                                                                   
P0450008045KC72360000001                    MINATI DAS                                                                                GOPINATH DAS                                                                              PROMILA DAS                                                                               PROSHANTO DAS                                                         9915006                             BD                 0                                                                                                                                                                                                                                                                                                                                                                                                                           000000000                                                                                                                                                                                                                                               
P0450008045I180640000001                    TALHA MRIDA                                                                               MD MOHIUDDIN                                                                              JAHANARA BEGUM                                                                                                                                                  9911000M03042000                    BD200012194280002021                                                                                                                3430                                                                                                                                                                                                                                                                                                       000000000 01306452678                                                                                                                                                                                                                                   
P0450008045JK89890000001                    MD BAYES MIA                                                                              LATE ABDUL KASHEM                                                     MST.                MST SURUJAHAN BEGUM                                                                       MST AYESHA AKTE                                                       9903009M20081984                    BD1219476357734    1                                                                                                                                                                                                                                                                                                                                                                                                                           000000000 01726677158                                                                                                                                                                                                                                   
P0450008045JZ08650000001                    KULSUM AKTER                                                                              Abul Foyez                                                                                Abeda Begum                                                                               Md Liton Miah                                                         9915001F10071989                    BD1219438301737    1                                                                                                                                                                                                                                                                                                                                                                                                                           000000000 01833648821                                                                                                                                                                                                                                   
P0450008045JK10970000001                    MOHAMMAD RASEL                                                                            ERSHAD ALI                                                                                AFROZA BEGUM                                                                              SALMA AKTER                                                           9911000M01021984                    BD5098487969       1                                                                                                                                                                                                                                                                                                                                                                                                                           000000000 01640552425                                                                                                                                                                                                                                   
P0450008045JJ42930000001                    KHOKAN MIAH                                                                               ABDUL HAI                                                                                 MINA BEGUM                                                                                NAHIDA AKTER                                                          9903009M25011988                    BD2398065066       1                                                                                                                                                                                                                                                                                                                                                                                                                           000000000 01710197530                                                                                                                                                                                                                                   
P0450008045J500780000001                    A.Q.M SOHEL RANA                                                                          ABDUL HAMID                                                                               NAZMA BEGUM                                                                               FERDOUSI SULTAN                                                       9910000M16121972                    BD1219428274862    1                                                                                                                                                                                                                                                                                                                                                                                                                           000000000 01711588975                                                                                                                                                                                                                                   
P0450008045JH68270000001                    HUMAYUN KABIR C                                                                           NOWAB MIAH CHOWDHURY                                                                      MOREYAM BEGUM                                                                                                                                                   9915006M15091975                    BD5548025963       1                                                                                                                3400                                                                                                                                                                                                                                                                                                       000000000 01711236504                                                                                                                                                                                                                                   
P0450008045JH76200000001                    FARID UDDIN                                                           MD.                 MD. SADEK MIA                                                                             JHORNA BEGUM                                                                                                                                                    9903009M14051987                    BD7798314212       1                                                                                                                3400                                                                                                                                                                                                                                                                                                       000000000 01915894849                                                                                                                                                                                                                                   
P0450008045JS02170000001                    RUMANA AKTER                                                                              MD KHURSHED ALAM                                                                          ROFIA KHATUN                                                                              LATE. MD. NAZRU                                                       9903009F02101978                    BD4199291024       1                                                                                                                                                                                                                                                                                                                                                                                                                           000000000 01791384438                                                                                                                                                                                                                                   
P0450008045JK48670000001                    AKASH AHMED                                                           MD.                 MD. SHUKKU MIA                                                                            AMBIA BEGUM                                                                               TASLIMA AKTER                                                         9903009M26051996                    BD9148377873       1                                                                                                                                                                                                                                                                                                                                                                                                                           000000000 01985972981                                                                                                                                                                                                                                   
P0450008045JT57470000001                    NEJAM UDDIN                                                                               AMIR UDDIN                                                                                SORIFA BEGUM                                                                              SHAMMI AKTER                                                          9903009M10041991                    BD3765061738       1                                                                                                                3400                                                                                                                                                                                                                                                                                                       000000000 01301639018                                                                                                                                                                                                                                   
P0450008045J811100000001MD.                 MD. SHAMIM                                                                                MD RAFIKUL ISLAM                                                                          SELINA BEGUM                                                                              AKLIMA AKTER                                                          9903009                             BD                 0                                                                                                                                                                                                                                                                                                                                                                                                                           000000000                                                                                                                                                                                                                                               
P0450008045JO53800000001                    MUSA MIAH                                                                                 ABDUR ROUF                                                                                JAHERA KHATUN                                                                             KABITA BEGUM                                                          9903009M25031979                    BD8247048864       1                                                                                                                                                                                                                                                                                                                                                                                                                           000000000 01734065987                                                                                                                                                                                                                                   
P0450008045JN81100000001                    KABIL MIA                                                                                 SHONA MIA                                                                                 BILATER NESA                                                                              FARIDA BEGUM                                                          9903009M14031965                    BD1497689206       1                                                                                                                                                                                                                                                                                                                                                                                                                           000000000 01778070840                                                                                                                                                                                                                                   
P0450008045J985270000001                    LITOON MIAH                                                                               SAMSUL HOQUE                                                                              RUBIYA                                                                                    MOINA BEGUM                                                           9903009                             BD                 0                                                                                                                                                                                                                                                                                                                                                                                                                           000000000                                                                                                                                                                                                                                               
P0450008045JL82820000001                    KAMRUL HASAN                                                                              ABUL KHAIR                                                                                MOMTAJ BEGUM                                                                              NAZMA AKTHER                                                          9903009M03021988                    BD2397306511       1                                                                                                                3400                                                                                                                                                                                                                                                                                                       000000000 01717836023                                                                                                                                                                                                                                   
P0450008045JM14690000001                    MD AHSANUL HAQ                                                        MD.                 MD. MISBAHUL HAQ                                                                          NAZMA HAQUE                                                                                                                                                     9903009M18111969                    BD4180997423       1                                                                                                                1214                                                                                                                                                                                                                                                                                                       000000000 01817113897                                                                                                                                                                                                                                   
P0450008045JN94190000001                    MD FAJAL MIAH                                                                             MD YUNUS MIAH                                                                             CHOKHINA BEGUM                                                                            JAHANARA BEGUM                                                        9903009M20071990                    BD5082018309       1                                                                                                                                                                                                                                                                                                                                                                                                                           000000000 01736315310                                                                                                                                                                                                                                   
P0450008045JQ58130000001MST.                MST KHUDAZA BEG                                                                           LAL MIAH                                                              MST.                MST JAHANARA BEGUM                                                                        RIPON MIAH                                                            9903009F31121975                    BD4648657544       1                                                                                                                                                                                                                                                                                                                                                                                                                           000000000 01679203130                                                                                                                                                                                                                                   
P0450008045JM89580000001                    RAJU ROY                                                                                  RAJENDRO ROY                                                                              HAYA RANI RAY                                                                             MONOPRIYA MALLI                                                       9903009M14061977                    BD3298542915       1                                                                                                                                                                                                                                                                                                                                                                                                                           000000000 01701369816                                                                                                                                                                                                                                   
P0450008045JY86700000001                    RAJIB                                                                                     INDRAJIT CHANDRA DAS                                                                      SUNOKA CHANDRA DAS                                                                        PURNIMA RANI DAS                                                      9911000M09121986                    BD6898121584       1                                                                                                                                                                                                                                                                                                                                                                                                                           000000000 01925360840                                                                                                                                                                                                                                   
P0450008045KB87270000001                    SYED MAHIUDDIN                                                                            Syed Yeahia                                                                               Tahmina Akter                                                                             Nupur Begum                                                           9911000                             BD                 0                                                                                                                                                                                                                                                                                                                                                                                                                           000000000                                                                                                                                                                                                                                               
P0450008045JX42100000001                    HOMAUN KABIR                                                                              MD HASAN                                                                                  JOSNA BEGUM                                                                               SHARMIN AKTER                                                         9911000M25111985                    BD2398806535       1                                                                                                                                                                                                                                                                                                                                                                                                                           000000000 01792456364                                                                                                                                                                                                                                   
P0450008045I725920000001                    ZAKIR HOSSAIN                                                                             SHAFIQUL HOSSAIN                                                                          AYASA AKTER                                                                                                                                                     9915006M01041970                    BD3256882154       1                                                                                                                3400                                                                                                                                                                                                                                                                                                       000000000 01720817000                                                                                                                                                                                                                                   
P0450008045KC31590000001                    MD MEHEDI HASAN                                                                           Md Hedayet Ullah                                                                          Hasna Begum                                                                                                                                                     9903009                             BD                 0                                                                                                                                                                                                                                                                                                                                                                                                                           000000000                                                                                                                                                                                                                                               
P04500080450331220000001                    MD OBAIED KHAN                                                                            MD IDRIS KHAN                                                         MST.                MST RAHIMA KHATUN                                                                         MST SUMA AKTER                                                        9910500M05121979                    BD10585987071866   1                                                                                                                                                                                                                                                                                                                                                                                                                           000000000 01795536708                                                                                                                                                                                                                                   
P0450008045HW26820000001MD.                 MD.AMRAN                                                                                  ABUL KASEM                                                                                JOHERA BEGUM                                                                              JAHEDA AKTER                                                          9911000M30121981                    BD1221308345656    1EM0038242HP0009                                                                                                    3400                                                                                                                                                                                                                                                                                                       000000000 01722233823                                                                                                                                                                                                                                
P0450008045I166090000001MST.                MST.SAHNAJ AKHTER                                                                         SIDDIKUR RAHMAN                                                       MST.                MST. MAJEDA KHATUN                                                                                                                                              9915001F07091982                      5551446171       1                                                                                                                3400                                                                                                                                                                                                                                                                                                       000000000 01929547757                                                                                                                                                                                                                                   
P0450008045J523950000001                    SAIDUL HAQUE                                                                              SHAHIDUL HAQUE                                                                            KAWSAR BEGUM                                                                                                                                                    9911000M04051988                    BD5999199929       1                                                                                                                                                                                                                                                                                                                                                                                                                           000000000 01726550985                                                                                                                                                                                                                                   
P0450008045I617860000001                    DEWAN CHOWDHURY                                                                           MOHAN CHOWDHURY                                                                           JAHADA BEGUM                                                                              MUNIYA CHOWDHURY                                                      9903009M12061973                      7758064500       1                                                                                                                3400                                                                                                                                                                                                                                                                                                       000000000 01849722618                                                                                                                                                                                                                                   
P0450008045JV15430000001                    SAHED MIAH                                                                                DHON MIAH                                                                                 AYESHA BEGUM                                                                              SHEULY BEGUM                                                          9910000M07031976                    BD3298023213       1                                                                                                                                                                                                                                                                                                                                                                                                                           000000000 01715493093                                                                                                                                                                                                                                   
P0450008045I088200000001                    ABDUL MALEK                                                                               ABDUL SHAHID                                                                              NUR BANU                                                                                                                                                        9903009M01011977                    BD3748410028       1                                                                                                                3400                                                                                                                                                                                                                                                                                                       000000000 01715410753                                                                                                                                                                                                                                   
P0450008045J191900000001                    MOHAMMED OMAR K                                                                           MOHAMMED ABBAS KHAN                                                                       KHADIZA BEGUM                                                                             SHAMIMA KHANOM                                                        9915006M10051969                    BD6905565351       1                                                                                                                                                                                                                                                                                                                                                                                                                           000000000 01966555567                                                                                                                                                                                                                                   
P04500080450067560000001                    MOHMMED SADRUL ALAM & OTHERS                                                                                                                                                                                                                                                                                                                        9903009M                            BD                 0                                                                                                                                                                                                                                                                                                                                                                                                                           000000000 01712430039                                                                                                                                                                                                                                   
P0450008045JW95720000001                    NASIMUZZAMAN                                                                              RAHIM UDDIN TALUKDAR                                                                      BEGUM NURUN NAHAR                                                                         SABINA PERVIN                                                         9911000M09101963                    BD8216146525       1                                                                                                                                                                                                                                                                                                                                                                                                                           000000000 01730707306                                                                                                                                                                                                                                   
P0450008045HA14620000001MD.                 MD.JILON MIA & ROBE                                                                       DHON MIAH                                                                                 RABEYA KHATUN                                                                             ROBE AKTER                                                            9911000M21101973                    BD197312213093463711158571434962                                                                                                    3400                                                                                                                                                                                                                                                                                                       000000000                                                                                                                                                                                                                                               
P0450008045HU11430000001MD.                 MD.SAMIR HOSSAIN                                                                          MD BOSLI MIAH                                                                             SHAMSHORNAHAR                                                                             MAHAMODA AKTER                                                        9910000M04011977                    BD197712113830000751            MD.SAMIR HOSSAIN,C/O-MD.BOJLO MIAH,HOLDING-357, SHEIKH BARI, BOBY,TOWER, MOHAMMADPUR, P.O-ULCHAPARA,3400                                                                                                                                                                                                                                                                                                       000000000 01756898488                                                                                                                                                                                                                                   
P0450008045KC66320000001                    MD SELIM                                                                                  LAIT MD JURU MIAH                                                                         LATE PANUARA BEGUM                                                                        KOJOL CISHTI                                                          9903009                             BD                 0                                                                                                                                                                                                                                                                                                                                                                                                                           000000000                                                                                                                                                                                                                                               
P04500080450939050000001                    PERVEEN SULTANA & MD SARWAR-E-ALAM                                                                                                                                                                                                                                                                                                                  9911000M                                               0                                                                                                                                                                                                                                                                                                                                                                                                                           000000000                                                                                                                                                                                                                                               
P0450008045HC17470000001                    MUHAMMED ABU FATHA                                                                        A HAKIM                                                                                   AMENA KHATUN                                                                                                                                                    9911000M31121979                    BD1221305799199    1                                                                                                                UNKNOWN                                                                                                                                                                                                                                                                                                       000000000 01711468846                                                                                                                                                                                                                                
P0450008045HB55170000001MD.                 MD.NAZMUL HOSSAIN                                                                         hajimd.mouhid hossain                                                                     moroha begum                                                                                                                                                    9911000M23112003                    BD1210476349287    1                                                                                                                3400                                                                                                                                                                                                                                                                                                       000000000 01744248442                                                                                                                                                                                                                                   
P04500080454953640000001MD.                 MD.RAFIQUL ISLAM                                                                          LATE MD.DIDER ALI                                                     MST.                MST.AMENA BEGUM                                                                           NARGIS AKHTER                                                         9911000M09101961                    BD1210257768287    1                                                                                                                                                                                                                                                                                                                                                                                                                           000000000 01979021296                                                                                                                                                                                                                                   
P0450008045JU44070000001                    MD ABDUR RAZZAQUE                                                                         MD FAZLUR RAHMAN                                                      MST.                MST RAFIYA KHATUN                                                                         MST SHEFALY AKTHER                                                    9911000M06051968                    BD6898042731       1                                                                                                                                                                                                                                                                                                                                                                                                                           000000000 01793388657                                                                                                                                                                                                                                   
P0450008045HG40180000001                    BASAR UDDIN                                                                               ELON MIA                                                                                  SALMA BEGUM                                                                               RAJIA SULTANA                                                         9911000M15041990                    BD7339085453       1321298491367                                                                                                    3400                                                                                                                                                                                                                                                                                                       000000000 01915549396                                                                                                                                                                                                                                   
P0450008045HJ89180000001                    RUNA LYLA KHANUM & MD.LOKMAN MIAH                                     MD.                 MD.FIROZ KHAN                                                         MST.                MST. RUBI KHANAM                                                      MD.                 MD. LOKMAN MIA                                                        9915001M17021973                    BD1211361553982    1                                                                                                                                                                                                                                                                                                                                                                                                                           000000000 01712043973                                                                                                                                                                                                                                   
P0450008045I024330000001                    SHAHNAZ BEGUM                                                                             FARID MIAH                                                                                HOJARA BEGUM                                                                              SAYADUL MIA                                                           9915001F11011986                      8248364104       1                                                                                                                3400                                                                                                                                                                                                                                                                                                       000000000 01720178425                                                                                                                                                                                                                                   
P0450008045HP01380000001                    BASHIRA AKTER                                                                             MD ABU SAID                                                                               KAZI DILARA BEGUM                                                                         MD ABSARUL HAQUE                                                      9915001F01011980                    BD28157053393      1            BASHIRA AKTER & MD.ANSARUL HAQUE,& MD.ANSARUL HAQUE,HOLDING-346/2,FULBARIA TOWER,,FULBARIA,B.BARIA S3400                                                                                                                                                                                                                                                                                                       000000000 01729176435                                                                                                                                                                                                                                   
P0450008045HW39530000001                    ABDUL KUDDUS (TAREK)                                                                      ABDUL KHALAK                                                          MST.                MST RINA BEGUM                                                                            SHULI AKHTER                                                          9911000M09111979                    BD9574168374       1            ABDUL KUDDUS TAREK & MST SHULI,AKTER,ROAD-RAJGHAR .PO-VAATPARA,3400 NATAI -UTTAR BRAHMANBARIA SADA,R3400                                                                                                                                                                                                                                                                                                       000000000 01711064413                                                                                                                                                                                                                                   
